:1000000000000320D1010000A13502005935020093
:1000100059350200593502005935020059350200A0
:10002000593502005935020059350200A135020048
:10003000A135020059350200BD500200C151020035
:10004000A1350200A1350200A1350200A135020050
:10005000A1350200A1350200A1350200A135020040
:10006000A1350200A1350200A1350200A135020030
:10007000A1350200A1350200A1350200A135020020
:10008000A1350200A1350200A1350200A135020010
:10009000A1350200A1350200A1350200A135020000
:1000A000E14F0100ED4F0100A1350200A135020032
:1000B000A1350200A1350200A1350200B9570200A6
:1000C000A1350200E5580200A1350200115A0200D4
:1000D000A1350200095B0200A1350200A135020032
:1000E000A1350200A1350200A1350200A1350200B0
:1000F000A1350200A1350200A1350200A1350200A0
:10010000A1350200A1350200A1350200A13502008F
:10011000A1350200913F0200A1350200A135020085
:10012000A1350200A1350200A1350200A13502006F
:10013000A1350200A1350200A1350200A13502005F
:10014000714E0200A1350200015C0200A1350200DF
:10015000A1350200A1350200A1350200A13502003F
:10016000A1350200A1350200F94F0100A1350200BE
:10017000A1350200A1350200A1350200A13502001F
:10018000A1350200A1350200A1350200A13502000F
:10019000A1350200A1350200F95C0200A135020080
:1001A000A1350200A1350200A1350200A1350200EF
:1001B000A1350200A1350200A1350200A1350200DF
:1001C000A1350200A1350200A1350200A1350200CF
:1001D0005C4B4CF2205210B51A804DF628121A8052
:1001E00000BF00BF23F0E0F9574B4FF030621A60B8
:1001F000564A9A60564ADA60564B4FF470021A60BB
:10020000554B564A1A60564A136813F4807304D14A
:1002100054490B604FF4A8531360534B1A781107DD
:1002200003D51A7842F008021A70504B5049AA229E
:100230001A70504A504B8B4204D252F8040F43F8C4
:10024000040BF8E74D4B4E4900228B4202D243F893
:10025000042BFAE74B494C4A002352F8230041F89B
:1002600023000133742BF8D1484B494A802103F80D
:10027000011B9342FBD1474B424A1A60464B8A22EC
:100280001A70A3F5805324225A70A0221A709A790A
:100290009207FCD59A79D406FCD4404A937903F0AE
:1002A0000C03082BFAD13E4B60221A7002331A78E5
:1002B000802AFCD1394B01221A715D225A719A7938
:1002C0009006FCD59979354A4906FBD5354B364918
:1002D00019600021596020231370937903F00C03F7
:1002E0000C2BFAD1314B324A1A60324B324A1A6027
:1002F00000225A60072243F8042C304AC3F80C2D20
:1003000062B623F0D7FC174B1B68DA0705D52C48DB
:1003100023F08EFA2B4B2C4A1A602C4B1B785B0671
:1003200009D5284C284B22689A4204D1244823F04E
:100330007FFA002323602CF015F823F03BF925F019
:1003400081F9FEE70E20054030800440823F040022
:100350000100002B88ED00E0002008E0030000858C
:1003600010D0034014D0034002D0074000E0074003
:1003700038CFFF1F303E040030BBFF1F38CFFF1FB8
:10038000A021022000B6FF1F0000000000E400E0F2
:1003900064E400E008ED00E0005006400040064044
:1003A00001E007404480044000000602048004404D
:1003B000C010070014E000E01FBF02000000202072
:1003C000B105C65C1CE00340A5C3945A00F0074089
:1003D000FFFFFFFFFFFFFFFFFFFFFFFFFFFFFFFF2D
:1003E000FFFFFFFFFFFFFFFFFFFFFFFFFFFFFFFF1D
:1003F000FFFFFFFFFFFFFFFFFFFFFFFFFFFFFFFF0D
:10040000FFFFFFFFFFFFFFFFFFFFFFFFDEF9FFFF23
:1004100010B5054C237833B9044B13B10448AFF33E
:1004200000800123237010BD38CFFF1F00000000A3
:100430002C3E0400084B10B51BB108490848AFF327
:1004400000800848036803B910BD074B002BFBD0A0
:10045000BDE81040184700BF000000003CCFFF1F60
:100460002C3E040038CFFF1F0000000023F0DAB953
:1004700010B5044B044640F8203B12F073F82046B8
:1004800010BD00BFF808030010B5044B044640F847
:10049000203B12F067F8204610BD00BFF8080300AB
:1004A00038B5054CA4F57F652046103C25F014F8BE
:1004B000AC42F9D138BD00BFB094002038B5054C2E
:1004C000A4F5C66504F11800483C25F005F8AC42D7
:1004D000F8D138BD78430020214B10B41A69136855
:1004E000506819780478507A137A044201EA0301BB
:1004F0001BD0937A03F0030309B143F0040343F0E4
:1005000008039910013B91720D2B0BD8DFE803F023
:1005100021071B070A152121150A071B0721D3688C
:10052000013BD3605DF8044B7047937A03F00303FB
:100530000029E6D043F00403E3E7D3685DF8044BF9
:10054000023BD3607047D3685DF8044B0233D3603D
:100550007047D3685DF8044B0133D360704700BF28
:10056000881B0220214B10B45A691368506819780F
:100570000478507A137A044201EA03011BD0937A7B
:1005800003F0030309B143F0040343F00803991097
:10059000013B91720D2B0BD8DFE803F021071B07FD
:1005A0000A152121150A071B0721D368013BD360D7
:1005B0005DF8044B7047937A03F003030029E6D0FB
:1005C00043F00403E3E7D3685DF8044B023BD360D8
:1005D0007047D3685DF8044B0233D3607047D3682B
:1005E0005DF8044B0133D360704700BF881B0220C5
:1005F000214B10B49A691368506819780478507ABE
:10060000137A044201EA03011BD0937A03F0030337
:1006100009B143F0040343F008039910013B9172C0
:100620000D2B0BD8DFE803F021071B070A1521214A
:10063000150A071B0721D368013BD3605DF8044B03
:100640007047937A03F003030029E6D043F00403D4
:10065000E3E7D3685DF8044B023BD3607047D3688F
:100660005DF8044B0233D3607047D3685DF8044BE8
:100670000133D360704700BF881B0220214B10B4A8
:10068000DA691368506819780478507A137A04424A
:1006900001EA03011BD0937A03F0030309B143F08D
:1006A000040343F008039910013B91720D2B0BD802
:1006B000DFE803F021071B070A152121150A071B94
:1006C0000721D368013BD3605DF8044B7047937AF0
:1006D00003F003030029E6D043F00403E3E7D36803
:1006E0005DF8044B023BD3607047D3685DF8044B60
:1006F0000233D3607047D3685DF8044B0133D36095
:10070000704700BF881B0220214B10B41A6A13687F
:10071000506819780478507A137A044201EA030188
:100720001BD0937A03F0030309B143F0040343F0B1
:1007300008039910013B91720D2B0BD8DFE803F0F1
:1007400021071B070A152121150A071B0721D3685A
:10075000013BD3605DF8044B7047937A03F00303C9
:100760000029E6D043F00403E3E7D3685DF8044BC7
:10077000023BD3607047D3685DF8044B0233D3600B
:100780007047D3685DF8044B0133D360704700BFF6
:10079000881B0220214B10B45A6A136850681978DC
:1007A0000478507A137A044201EA03011BD0937A49
:1007B00003F0030309B143F0040343F00803991065
:1007C000013B91720D2B0BD8DFE803F021071B07CB
:1007D0000A152121150A071B0721D368013BD360A5
:1007E0005DF8044B7047937A03F003030029E6D0C9
:1007F00043F00403E3E7D3685DF8044B023BD360A6
:100800007047D3685DF8044B0233D3607047D368F8
:100810005DF8044B0133D360704700BF881B022092
:10082000214B10B49A6A1368506819780478507A8A
:10083000137A044201EA03011BD0937A03F0030305
:1008400009B143F0040343F008039910013B91728E
:100850000D2B0BD8DFE803F021071B070A15212118
:10086000150A071B0721D368013BD3605DF8044BD1
:100870007047937A03F003030029E6D043F00403A2
:10088000E3E7D3685DF8044B023BD3607047D3685D
:100890005DF8044B0233D3607047D3685DF8044BB6
:1008A0000133D360704700BF881B0220214B10B476
:1008B000DA6A1368506819780478507A137A044217
:1008C00001EA03011BD0937A03F0030309B143F05B
:1008D000040343F008039910013B91720D2B0BD8D0
:1008E000DFE803F021071B070A152121150A071B62
:1008F0000721D368013BD3605DF8044B7047937ABE
:1009000003F003030029E6D043F00403E3E7D368D0
:100910005DF8044B023BD3607047D3685DF8044B2D
:100920000233D3607047D3685DF8044B0133D36062
:10093000704700BF881B0220214B10B41A6B13684C
:10094000506819780478507A137A044201EA030156
:100950001BD0937A03F0030309B143F0040343F07F
:1009600008039910013B91720D2B0BD8DFE803F0BF
:1009700021071B070A152121150A071B0721D36828
:10098000013BD3605DF8044B7047937A03F0030397
:100990000029E6D043F00403E3E7D3685DF8044B95
:1009A000023BD3607047D3685DF8044B0233D360D9
:1009B0007047D3685DF8044B0133D360704700BFC4
:1009C000881B0220214B10B45A6B136850681978A9
:1009D0000478507A137A044201EA03011BD0937A17
:1009E00003F0030309B143F0040343F00803991033
:1009F000013B91720D2B0BD8DFE803F021071B0799
:100A00000A152121150A071B0721D368013BD36072
:100A10005DF8044B7047937A03F003030029E6D096
:100A200043F00403E3E7D3685DF8044B023BD36073
:100A30007047D3685DF8044B0233D3607047D368C6
:100A40005DF8044B0133D360704700BF881B022060
:100A5000214B10B49A6B1368506819780478507A57
:100A6000137A044201EA03011BD0937A03F00303D3
:100A700009B143F0040343F008039910013B91725C
:100A80000D2B0BD8DFE803F021071B070A152121E6
:100A9000150A071B0721D368013BD3605DF8044B9F
:100AA0007047937A03F003030029E6D043F0040370
:100AB000E3E7D3685DF8044B023BD3607047D3682B
:100AC0005DF8044B0233D3607047D3685DF8044B84
:100AD0000133D360704700BF881B0220214B10B444
:100AE000DA6B1368506819780478507A137A0442E4
:100AF00001EA03011BD0937A03F0030309B143F029
:100B0000040343F008039910013B91720D2B0BD89D
:100B1000DFE803F021071B070A152121150A071B2F
:100B20000721D368013BD3605DF8044B7047937A8B
:100B300003F003030029E6D043F00403E3E7D3689E
:100B40005DF8044B023BD3607047D3685DF8044BFB
:100B50000233D3607047D3685DF8044B0133D36030
:100B6000704700BF881B0220214B10B41A6C136819
:100B7000506819780478507A137A044201EA030124
:100B80001BD0937A03F0030309B143F0040343F04D
:100B900008039910013B91720D2B0BD8DFE803F08D
:100BA00021071B070A152121150A071B0721D368F6
:100BB000013BD3605DF8044B7047937A03F0030365
:100BC0000029E6D043F00403E3E7D3685DF8044B63
:100BD000023BD3607047D3685DF8044B0233D360A7
:100BE0007047D3685DF8044B0133D360704700BF92
:100BF000881B0220214B10B45A6C13685068197876
:100C00000478507A137A044201EA03011BD0937AE4
:100C100003F0030309B143F0040343F00803991000
:100C2000013B91720D2B0BD8DFE803F021071B0766
:100C30000A152121150A071B0721D368013BD36040
:100C40005DF8044B7047937A03F003030029E6D064
:100C500043F00403E3E7D3685DF8044B023BD36041
:100C60007047D3685DF8044B0233D3607047D36894
:100C70005DF8044B0133D360704700BF881B02202E
:100C8000214B10B49A6C1368506819780478507A24
:100C9000137A044201EA03011BD0937A03F00303A1
:100CA00009B143F0040343F008039910013B91722A
:100CB0000D2B0BD8DFE803F021071B070A152121B4
:100CC000150A071B0721D368013BD3605DF8044B6D
:100CD0007047937A03F003030029E6D043F004033E
:100CE000E3E7D3685DF8044B023BD3607047D368F9
:100CF0005DF8044B0233D3607047D3685DF8044B52
:100D00000133D360704700BF881B0220214B10B411
:100D1000DA6C1368506819780478507A137A0442B0
:100D200001EA03011BD0937A03F0030309B143F0F6
:100D3000040343F008039910013B91720D2B0BD86B
:100D4000DFE803F021071B070A152121150A071BFD
:100D50000721D368013BD3605DF8044B7047937A59
:100D600003F003030029E6D043F00403E3E7D3686C
:100D70005DF8044B023BD3607047D3685DF8044BC9
:100D80000233D3607047D3685DF8044B0133D360FE
:100D9000704700BF881B0220214B10B41A6D1368E6
:100DA000506819780478507A137A044201EA0301F2
:100DB0001BD0937A03F0030309B143F0040343F01B
:100DC00008039910013B91720D2B0BD8DFE803F05B
:100DD00021071B070A152121150A071B0721D368C4
:100DE000013BD3605DF8044B7047937A03F0030333
:100DF0000029E6D043F00403E3E7D3685DF8044B31
:100E0000023BD3607047D3685DF8044B0233D36074
:100E10007047D3685DF8044B0133D360704700BF5F
:100E2000881B0220214B10B45A6D13685068197842
:100E30000478507A137A044201EA03011BD0937AB2
:100E400003F0030309B143F0040343F008039910CE
:100E5000013B91720D2B0BD8DFE803F021071B0734
:100E60000A152121150A071B0721D368013BD3600E
:100E70005DF8044B7047937A03F003030029E6D032
:100E800043F00403E3E7D3685DF8044B023BD3600F
:100E90007047D3685DF8044B0233D3607047D36862
:100EA0005DF8044B0133D360704700BF881B0220FC
:100EB000214B10B49A6D1368506819780478507AF1
:100EC000137A044201EA03011BD0937A03F003036F
:100ED00009B143F0040343F008039910013B9172F8
:100EE0000D2B0BD8DFE803F021071B070A15212182
:100EF000150A071B0721D368013BD3605DF8044B3B
:100F00007047937A03F003030029E6D043F004030B
:100F1000E3E7D3685DF8044B023BD3607047D368C6
:100F20005DF8044B0233D3607047D3685DF8044B1F
:100F30000133D360704700BF881B0220214B10B4DF
:100F4000DA6D1368506819780478507A137A04427D
:100F500001EA03011BD0937A03F0030309B143F0C4
:100F6000040343F008039910013B91720D2B0BD839
:100F7000DFE803F021071B070A152121150A071BCB
:100F80000721D368013BD3605DF8044B7047937A27
:100F900003F003030029E6D043F00403E3E7D3683A
:100FA0005DF8044B023BD3607047D3685DF8044B97
:100FB0000233D3607047D3685DF8044B0133D360CC
:100FC000704700BF881B0220214B10B41A6E1368B3
:100FD000506819780478507A137A044201EA0301C0
:100FE0001BD0937A03F0030309B143F0040343F0E9
:100FF00008039910013B91720D2B0BD8DFE803F029
:1010000021071B070A152121150A071B0721D36891
:10101000013BD3605DF8044B7047937A03F0030300
:101020000029E6D043F00403E3E7D3685DF8044BFE
:10103000023BD3607047D3685DF8044B0233D36042
:101040007047D3685DF8044B0133D360704700BF2D
:10105000881B0220214B10B45A6E1368506819780F
:101060000478507A137A044201EA03011BD0937A80
:1010700003F0030309B143F0040343F0080399109C
:10108000013B91720D2B0BD8DFE803F021071B0702
:101090000A152121150A071B0721D368013BD360DC
:1010A0005DF8044B7047937A03F003030029E6D000
:1010B00043F00403E3E7D3685DF8044B023BD360DD
:1010C0007047D3685DF8044B0233D3607047D36830
:1010D0005DF8044B0133D360704700BF881B0220CA
:1010E000214B10B49A6E1368506819780478507ABE
:1010F000137A044201EA03011BD0937A03F003033D
:1011000009B143F0040343F008039910013B9172C5
:101110000D2B0BD8DFE803F021071B070A1521214F
:10112000150A071B0721D368013BD3605DF8044B08
:101130007047937A03F003030029E6D043F00403D9
:10114000E3E7D3685DF8044B023BD3607047D36894
:101150005DF8044B0233D3607047D3685DF8044BED
:101160000133D360704700BF881B0220214B10B4AD
:10117000DA6E1368506819780478507A137A04424A
:1011800001EA03011BD0937A03F0030309B143F092
:10119000040343F008039910013B91720D2B0BD807
:1011A000DFE803F021071B070A152121150A071B99
:1011B0000721D368013BD3605DF8044B7047937AF5
:1011C00003F003030029E6D043F00403E3E7D36808
:1011D0005DF8044B023BD3607047D3685DF8044B65
:1011E0000233D3607047D3685DF8044B0133D3609A
:1011F000704700BF881B0220214B10B41A6F136880
:10120000506819780478507A137A044201EA03018D
:101210001BD0937A03F0030309B143F0040343F0B6
:1012200008039910013B91720D2B0BD8DFE803F0F6
:1012300021071B070A152121150A071B0721D3685F
:10124000013BD3605DF8044B7047937A03F00303CE
:101250000029E6D043F00403E3E7D3685DF8044BCC
:10126000023BD3607047D3685DF8044B0233D36010
:101270007047D3685DF8044B0133D360704700BFFB
:10128000881B0220214B10B45A6F136850681978DC
:101290000478507A137A044201EA03011BD0937A4E
:1012A00003F0030309B143F0040343F0080399106A
:1012B000013B91720D2B0BD8DFE803F021071B07D0
:1012C0000A152121150A071B0721D368013BD360AA
:1012D0005DF8044B7047937A03F003030029E6D0CE
:1012E00043F00403E3E7D3685DF8044B023BD360AB
:1012F0007047D3685DF8044B0233D3607047D368FE
:101300005DF8044B0133D360704700BF881B022097
:10131000214B10B49A6F1368506819780478507A8A
:10132000137A044201EA03011BD0937A03F003030A
:1013300009B143F0040343F008039910013B917293
:101340000D2B0BD8DFE803F021071B070A1521211D
:10135000150A071B0721D368013BD3605DF8044BD6
:101360007047937A03F003030029E6D043F00403A7
:10137000E3E7D3685DF8044B023BD3607047D36862
:101380005DF8044B0233D3607047D3685DF8044BBB
:101390000133D360704700BF881B0220214B10B47B
:1013A000DA6F1368506819780478507A137A044217
:1013B00001EA03011BD0937A03F0030309B143F060
:1013C000040343F008039910013B91720D2B0BD8D5
:1013D000DFE803F021071B070A152121150A071B67
:1013E0000721D368013BD3605DF8044B7047937AC3
:1013F00003F003030029E6D043F00403E3E7D368D6
:101400005DF8044B023BD3607047D3685DF8044B32
:101410000233D3607047D3685DF8044B0133D36067
:10142000704700BF881B0220214B10B4D3F88020E6
:101430001368506819780478507A137A044201EAE4
:1014400003011BD0937A03F0030309B143F00403B3
:1014500043F008039910013B91720D2B0BD8DFE884
:1014600003F021071B070A152121150A071B072175
:10147000D368013BD3605DF8044B7047937A03F067
:1014800003030029E6D043F00403E3E7D3685DF8E3
:10149000044B023BD3607047D3685DF8044B0233C2
:1014A000D3607047D3685DF8044B0133D360704755
:1014B000881B0220214B10B4D3F884201368506895
:1014C00019780478507A137A044201EA03011BD098
:1014D000937A03F0030309B143F0040343F00803D4
:1014E0009910013B91720D2B0BD8DFE803F0210717
:1014F0001B070A152121150A071B0721D368013B89
:10150000D3605DF8044B7047937A03F0030300291E
:10151000E6D043F00403E3E7D3685DF8044B023BF5
:10152000D3607047D3685DF8044B0233D3607047D3
:10153000D3685DF8044B0133D3607047881B0220E9
:10154000214B10B4D3F888201368506819780478B8
:10155000507A137A044201EA03011BD0937A03F014
:10156000030309B143F0040343F008039910013B5E
:1015700091720D2B0BD8DFE803F021071B070A152A
:101580002121150A071B0721D368013BD3605DF8B1
:10159000044B7047937A03F003030029E6D043F02D
:1015A0000403E3E7D3685DF8044B023BD360704764
:1015B000D3685DF8044B0233D3607047D3685DF89D
:1015C000044B0133D3607047881B0220214B10B4B9
:1015D000D3F88C201368506819780478507A137AFD
:1015E000044201EA03011BD0937A03F0030309B11B
:1015F00043F0040343F008039910013B91720D2B53
:101600000BD8DFE803F021071B070A152121150A73
:10161000071B0721D368013BD3605DF8044B70477B
:10162000937A03F003030029E6D043F00403E3E7D1
:10163000D3685DF8044B023BD3607047D3685DF814
:10164000044B0233D3607047D3685DF8044B013319
:10165000D3607047881B0220214B10B4D3F8902030
:101660001368506819780478507A137A044201EAB2
:1016700003011BD0937A03F0030309B143F0040381
:1016800043F008039910013B91720D2B0BD8DFE852
:1016900003F021071B070A152121150A071B072143
:1016A000D368013BD3605DF8044B7047937A03F035
:1016B00003030029E6D043F00403E3E7D3685DF8B1
:1016C000044B023BD3607047D3685DF8044B023390
:1016D000D3607047D3685DF8044B0133D360704723
:1016E000881B0220214B10B4D3F894201368506853
:1016F00019780478507A137A044201EA03011BD066
:10170000937A03F0030309B143F0040343F00803A1
:101710009910013B91720D2B0BD8DFE803F02107E4
:101720001B070A152121150A071B0721D368013B56
:10173000D3605DF8044B7047937A03F003030029EC
:10174000E6D043F00403E3E7D3685DF8044B023BC3
:10175000D3607047D3685DF8044B0233D3607047A1
:10176000D3685DF8044B0133D3607047881B0220B7
:10177000214B10B4D3F89820136850681978047876
:10178000507A137A044201EA03011BD0937A03F0E2
:10179000030309B143F0040343F008039910013B2C
:1017A00091720D2B0BD8DFE803F021071B070A15F8
:1017B0002121150A071B0721D368013BD3605DF87F
:1017C000044B7047937A03F003030029E6D043F0FB
:1017D0000403E3E7D3685DF8044B023BD360704732
:1017E000D3685DF8044B0233D3607047D3685DF86B
:1017F000044B0133D3607047881B0220214B10B487
:10180000D3F89C201368506819780478507A137ABA
:10181000044201EA03011BD0937A03F0030309B1E8
:1018200043F0040343F008039910013B91720D2B20
:101830000BD8DFE803F021071B070A152121150A41
:10184000071B0721D368013BD3605DF8044B704749
:10185000937A03F003030029E6D043F00403E3E79F
:10186000D3685DF8044B023BD3607047D3685DF8E2
:10187000044B0233D3607047D3685DF8044B0133E7
:10188000D3607047881B0220214B10B4D3F8A020EE
:101890001368506819780478507A137A044201EA80
:1018A00003011BD0937A03F0030309B143F004034F
:1018B00043F008039910013B91720D2B0BD8DFE820
:1018C00003F021071B070A152121150A071B072111
:1018D000D368013BD3605DF8044B7047937A03F003
:1018E00003030029E6D043F00403E3E7D3685DF87F
:1018F000044B023BD3607047D3685DF8044B02335E
:10190000D3607047D3685DF8044B0133D3607047F0
:10191000881B0220214B10B4D3F8A4201368506810
:1019200019780478507A137A044201EA03011BD033
:10193000937A03F0030309B143F0040343F008036F
:101940009910013B91720D2B0BD8DFE803F02107B2
:101950001B070A152121150A071B0721D368013B24
:10196000D3605DF8044B7047937A03F003030029BA
:10197000E6D043F00403E3E7D3685DF8044B023B91
:10198000D3607047D3685DF8044B0233D36070476F
:10199000D3685DF8044B0133D3607047881B022085
:1019A000214B10B4D3F8A820136850681978047834
:1019B000507A137A044201EA03011BD0937A03F0B0
:1019C000030309B143F0040343F008039910013BFA
:1019D00091720D2B0BD8DFE803F021071B070A15C6
:1019E0002121150A071B0721D368013BD3605DF84D
:1019F000044B7047937A03F003030029E6D043F0C9
:101A00000403E3E7D3685DF8044B023BD3607047FF
:101A1000D3685DF8044B0233D3607047D3685DF838
:101A2000044B0133D3607047881B0220214B10B454
:101A3000D3F8AC201368506819780478507A137A78
:101A4000044201EA03011BD0937A03F0030309B1B6
:101A500043F0040343F008039910013B91720D2BEE
:101A60000BD8DFE803F021071B070A152121150A0F
:101A7000071B0721D368013BD3605DF8044B704717
:101A8000937A03F003030029E6D043F00403E3E76D
:101A9000D3685DF8044B023BD3607047D3685DF8B0
:101AA000044B0233D3607047D3685DF8044B0133B5
:101AB000D3607047881B0220214B10B4D3F8B020AC
:101AC0001368506819780478507A137A044201EA4E
:101AD00003011BD0937A03F0030309B143F004031D
:101AE00043F008039910013B91720D2B0BD8DFE8EE
:101AF00003F021071B070A152121150A071B0721DF
:101B0000D368013BD3605DF8044B7047937A03F0D0
:101B100003030029E6D043F00403E3E7D3685DF84C
:101B2000044B023BD3607047D3685DF8044B02332B
:101B3000D3607047D3685DF8044B0133D3607047BE
:101B4000881B0220214B10B4D3F8B42013685068CE
:101B500019780478507A137A044201EA03011BD001
:101B6000937A03F0030309B143F0040343F008033D
:101B70009910013B91720D2B0BD8DFE803F0210780
:101B80001B070A152121150A071B0721D368013BF2
:101B9000D3605DF8044B7047937A03F00303002988
:101BA000E6D043F00403E3E7D3685DF8044B023B5F
:101BB000D3607047D3685DF8044B0233D36070473D
:101BC000D3685DF8044B0133D3607047881B022053
:101BD000214B10B4D3F8B8201368506819780478F2
:101BE000507A137A044201EA03011BD0937A03F07E
:101BF000030309B143F0040343F008039910013BC8
:101C000091720D2B0BD8DFE803F021071B070A1593
:101C10002121150A071B0721D368013BD3605DF81A
:101C2000044B7047937A03F003030029E6D043F096
:101C30000403E3E7D3685DF8044B023BD3607047CD
:101C4000D3685DF8044B0233D3607047D3685DF806
:101C5000044B0133D3607047881B0220214B10B422
:101C6000D3F8BC201368506819780478507A137A36
:101C7000044201EA03011BD0937A03F0030309B184
:101C800043F0040343F008039910013B91720D2BBC
:101C90000BD8DFE803F021071B070A152121150ADD
:101CA000071B0721D368013BD3605DF8044B7047E5
:101CB000937A03F003030029E6D043F00403E3E73B
:101CC000D3685DF8044B023BD3607047D3685DF87E
:101CD000044B0233D3607047D3685DF8044B013383
:101CE000D3607047881B0220214B10B4D3F8C0206A
:101CF0001368506819780478507A137A044201EA1C
:101D000003011BD0937A03F0030309B143F00403EA
:101D100043F008039910013B91720D2B0BD8DFE8BB
:101D200003F021071B070A152121150A071B0721AC
:101D3000D368013BD3605DF8044B7047937A03F09E
:101D400003030029E6D043F00403E3E7D3685DF81A
:101D5000044B023BD3607047D3685DF8044B0233F9
:101D6000D3607047D3685DF8044B0133D36070478C
:101D7000881B0220214B10B4D3F8C420136850688C
:101D800019780478507A137A044201EA03011BD0CF
:101D9000937A03F0030309B143F0040343F008030B
:101DA0009910013B91720D2B0BD8DFE803F021074E
:101DB0001B070A152121150A071B0721D368013BC0
:101DC000D3605DF8044B7047937A03F00303002956
:101DD000E6D043F00403E3E7D3685DF8044B023B2D
:101DE000D3607047D3685DF8044B0233D36070470B
:101DF000D3685DF8044B0133D3607047881B022021
:101E0000214B10B4D3F8C8201368506819780478AF
:101E1000507A137A044201EA03011BD0937A03F04B
:101E2000030309B143F0040343F008039910013B95
:101E300091720D2B0BD8DFE803F021071B070A1561
:101E40002121150A071B0721D368013BD3605DF8E8
:101E5000044B7047937A03F003030029E6D043F064
:101E60000403E3E7D3685DF8044B023BD36070479B
:101E7000D3685DF8044B0233D3607047D3685DF8D4
:101E8000044B0133D3607047881B0220214B10B4F0
:101E9000D3F8CC201368506819780478507A137AF4
:101EA000044201EA03011BD0937A03F0030309B152
:101EB00043F0040343F008039910013B91720D2B8A
:101EC0000BD8DFE803F021071B070A152121150AAB
:101ED000071B0721D368013BD3605DF8044B7047B3
:101EE000937A03F003030029E6D043F00403E3E709
:101EF000D3685DF8044B023BD3607047D3685DF84C
:101F0000044B0233D3607047D3685DF8044B013350
:101F1000D3607047881B0220214B10B4D3F8D02027
:101F20001368506819780478507A137A044201EAE9
:101F300003011BD0937A03F0030309B143F00403B8
:101F400043F008039910013B91720D2B0BD8DFE889
:101F500003F021071B070A152121150A071B07217A
:101F6000D368013BD3605DF8044B7047937A03F06C
:101F700003030029E6D043F00403E3E7D3685DF8E8
:101F8000044B023BD3607047D3685DF8044B0233C7
:101F9000D3607047D3685DF8044B0133D36070475A
:101FA000881B0220214B10B4D3F8D420136850684A
:101FB00019780478507A137A044201EA03011BD09D
:101FC000937A03F0030309B143F0040343F00803D9
:101FD0009910013B91720D2B0BD8DFE803F021071C
:101FE0001B070A152121150A071B0721D368013B8E
:101FF000D3605DF8044B7047937A03F00303002924
:10200000E6D043F00403E3E7D3685DF8044B023BFA
:10201000D3607047D3685DF8044B0233D3607047D8
:10202000D3685DF8044B0133D3607047881B0220EE
:10203000214B10B4D3F8D82013685068197804786D
:10204000507A137A044201EA03011BD0937A03F019
:10205000030309B143F0040343F008039910013B63
:1020600091720D2B0BD8DFE803F021071B070A152F
:102070002121150A071B0721D368013BD3605DF8B6
:10208000044B7047937A03F003030029E6D043F032
:102090000403E3E7D3685DF8044B023BD360704769
:1020A000D3685DF8044B0233D3607047D3685DF8A2
:1020B000044B0133D3607047881B0220214B10B4BE
:1020C000D3F8DC201368506819780478507A137AB2
:1020D000044201EA03011BD0937A03F0030309B120
:1020E00043F0040343F008039910013B91720D2B58
:1020F0000BD8DFE803F021071B070A152121150A79
:10210000071B0721D368013BD3605DF8044B704780
:10211000937A03F003030029E6D043F00403E3E7D6
:10212000D3685DF8044B023BD3607047D3685DF819
:10213000044B0233D3607047D3685DF8044B01331E
:10214000D3607047881B0220214B10B4D3F8E020E5
:102150001368506819780478507A137A044201EAB7
:1021600003011BD0937A03F0030309B143F0040386
:1021700043F008039910013B91720D2B0BD8DFE857
:1021800003F021071B070A152121150A071B072148
:10219000D368013BD3605DF8044B7047937A03F03A
:1021A00003030029E6D043F00403E3E7D3685DF8B6
:1021B000044B023BD3607047D3685DF8044B023395
:1021C000D3607047D3685DF8044B0133D360704728
:1021D000881B022070B5044608460D462BF010F807
:1021E00023680246294620465B68BDE870401847D0
:1021F00038B5044608460D462BF002F8236802461F
:1022000029465B68204698470546204623F01AF881
:10221000284438BD38B5054623F07AF804462846E8
:1022200023F010F8204438BD002310B4104C417244
:10223000026104600372C36041B1194600E00269A3
:1022400042F82310427A01339A42F8DC094B1A68AB
:102250000AB90BE01A465369002BFBD150610023E9
:1022600043618380C3805DF8044B70471860F6E7D4
:10227000EC080300A81D022010B4036841681A7816
:102280000C78417A037A0C4202EA03021BD0837A6B
:1022900003F003030AB143F0040343F008039A1068
:1022A000013B82720D2B0BD8DFE803F021071B07DF
:1022B0000A152121150A071B0721C368013BC360CA
:1022C0005DF8044B7047837A03F00303002AE6D0DD
:1022D00043F00403E3E7C3685DF8044B023BC360CB
:1022E0007047C3685DF8044B0233C3607047C3682E
:1022F0005DF8044B0133C360704700BF08B5034B62
:10230000D3F8EC00FFF7B8FF08BD00BF881B022020
:1023100008B5034BD3F8E800FFF7AEFF08BD00BFD8
:10232000881B022008B5034BD3F8E400FFF7A4FF95
:1023300008BD00BF881B022008B5024BD868FFF714
:102340009BFF08BD881B022008B5024B9868FFF769
:1023500093FF08BD881B022008B5024B5868FFF7A1
:102360008BFF08BD881B022008B5024B1868FFF7D9
:1023700083FF08BD881B022008B50B463B2800F2EE
:10238000C682DFE810F0BB02B202A902A0029702E7
:102390008E0285027C0273026A02610258024F02B9
:1023A00046023D0234022B022202190210020702E9
:1023B000AE01A5019C0193018A01810178016F01A1
:1023C00066015D0154014A01400136012C012201E0
:1023D00018010E010401FA00F000E600DC00D20052
:1023E000C800BE00B400AA00A00096008C008200C5
:1023F00078006E0064005A00500046003C00BD4A60
:10240000BD49C2F8EC303B20042221F08FF90120B5
:1024100008BDB84AB949C2F8E8303A20042221F090
:1024200085F9012008BDB34AB549C2F8E430392026
:10243000042221F07BF9012008BDAE4AB149C2F85F
:10244000E0303820042221F071F9012008BDA94AAA
:10245000AD49C2F8DC303720042221F067F90120B1
:1024600008BDA44AA949C2F8D8303620042221F078
:102470005DF9012008BD9F4AA549C2F8D430352036
:10248000042221F053F9012008BD9A4AA149C2F85B
:10249000D0303420042221F049F9012008BD954AAA
:1024A0009D49C2F8CC303320042221F03FF90120AD
:1024B00008BD904A9949C2F8C8303220042221F060
:1024C00035F9012008BD8B4A9549C2F8C430312046
:1024D000042221F02BF9012008BD864A9149C2F857
:1024E000C0303020042221F021F9012008BD814AAA
:1024F0008D49C2F8BC302F20042221F017F90120A9
:1025000008BD7C4A8949C2F8B8302E20042221F047
:102510000DF9012008BD774A8549C2F8B4302D2055
:10252000042221F003F9012008BD724A8149C2F852
:10253000B0302C20042221F0F9F8012008BD6D4AAA
:102540007D49C2F8AC302B20042221F0EFF80120A5
:1025500008BD684A7949C2F8A8302A20042221F02F
:10256000E5F8012008BD634A7549C2F8A430292066
:10257000042221F0DBF8012008BD5E4A7149C2F84F
:10258000A0302820042221F0D1F8012008BD594AAA
:102590006D49C2F89C302720042221F0C7F80120A1
:1025A00008BD544A6949C2F898302620042221F017
:1025B000BDF8012008BD4F4A6549C2F89430252076
:1025C000042221F0B3F8012008BD4A4A6149C2F84B
:1025D00090302420042221F0A9F8012008BD454AAA
:1025E0005D49C2F88C302320042221F09FF801209D
:1025F00008BD404A5949C2F888302220042221F0FF
:1026000095F8012008BD3B4A5549C2F88430212085
:10261000042221F08BF8012008BD364A5149C2F846
:1026200080302020042221F081F8012008BD314AA9
:102630004D49D3671F20042221F078F8012008BDFE
:102640002C4A4A4993671E20042221F06FF801208A
:1026500008BD284A464953671D20042221F066F828
:10266000012008BD234A434913671C20042221F09E
:102670005DF8012008BD1F4A3F49D3661B20042294
:1026800021F054F8012008BD1A4A3C4993661A20EB
:10269000042221F04BF8012008BD164A3849536640
:1026A0001920042221F042F8012008BD114A3549C1
:1026B00013661820042221F039F8012008BD0D4AC4
:1026C0003149D3651720042221F030F8012008BDDC
:1026D000084A2E4993651620042221F027F801208C
:1026E00008BD044A2A4953651520042221F01EF82A
:1026F000012008BD881B0220FD22000011230000DC
:102700002523000049210000BD20000031200000E9
:10271000A51F0000191F00008D1E0000011E0000F3
:10272000751D0000E91C00005D1C0000D11B0000AD
:10273000451B0000B91A00002D1A0000A119000065
:102740001519000089180000FD170000711700001E
:10275000E516000059160000CD15000041150000D7
:10276000B5140000291400009D130000111300008F
:1027700085120000F91100006D110000E110000049
:1027800055100000C90F00003D0F0000B10E000001
:10279000250E00005F4A604913651420042220F0D2
:1027A000C5FF012008BD5B4A5C49D36413200422A5
:1027B00020F0BCFF012008BD564A594993641220FD
:1027C000042220F0B3FF012008BD524A554953644A
:1027D0001120042220F0AAFF012008BD4D4A5249D1
:1027E00013641020042220F0A1FF012008BD494AF3
:1027F0004E49D3630F20042220F098FF012008BD2A
:10280000444A4B4993630E20042220F08FFF01209D
:1028100008BD404A474953630D20042220F086FF3B
:10282000012008BD3B4A444913630C20042220F0D8
:102830007DFF012008BD374A4049D3620B200422A6
:1028400020F074FF012008BD324A3D4993620A20FE
:10285000042220F06BFF012008BD2E4A3949536243
:102860000920042220F062FF012008BD294A3649D0
:1028700013620820042220F059FF012008BD254AD8
:102880003249D3610720042220F050FF012008BD07
:10289000204A2F4993610620042220F047FF01209F
:1028A00008BD1C4A2B4953610520042220F03EFF3D
:1028B000012008BD174A284913610422104620F060
:1028C00035FF012008BD134A2449D36003200422A8
:1028D00020F02CFF012008BD0E4A21499360022000
:1028E000042220F023FF012008BD0A4A1D4953603D
:1028F0000120042220F01AFF012008BD054A1A49D0
:1029000013600020042220F011FF012008BD0020E8
:1029100008BD00BF881B0220990D00000D0D0000AE
:10292000810C0000F50B0000690B0000DD0A0000BF
:10293000510A0000C509000039090000AD08000077
:102940002108000095070000090700007D0600002F
:10295000F105000065050000D904000039230000DE
:10296000492300005923000069230000F8B50446FC
:1029700015460E460846022121F020F9284602217C
:1029800021F01CF9164A174B52F83610012001F5B8
:1029900000772760207252F83520607202F50077C8
:1029A00000206760E060013BFDD191F8003292F8B1
:1029B000002203F00103D20744BF43F00203DBB25D
:1029C000A37221463046FFF7D7FC214620742846E3
:1029D000FFF7D2FC237C184420742046F8BD00BFCA
:1029E00034E70300C0D4010018490A6870B5002319
:1029F000174D05600446437203610372C3600AB950
:102A000021E01A465369002BFBD154610025114B7C
:102A1000A3616561A580E58004F120000FF094FDBD
:102A20000D4E0E490E4A0F4B0F482060A4F85A5025
:102A3000A4F85850656584F85C50204635600D60F8
:102A400015601D6070BD0860E0E700BFA81D022092
:102A5000EC080300032000388C1C0220941C022088
:102A6000901C0220981C0220F8080300804B1B6871
:102A7000002B40F3FB802DE9F04F7E4A7E497F4DCD
:102A80007F4F91ED003ADFF828C27E4CD2F800E08B
:102A90007D48DFF820A2DFF820827C497C4E7D4A09
:102AA000DFF8189295ED004ADFF814B27A4D97EDF1
:102AB000002A7A4F9CED000AD4ED000A36680068BF
:102AC000D2ED005AD8F80080DFF8F8C1744C9FEDC1
:102AD000751AD9ED001A2DED048BD1ED008A9AF804
:102AE00000A09BED008AF0EE433AF1EE442A05EB9C
:102AF0008E0507EB83094FF0000BF7EE004ABCECA4
:102B0000015A9FED697A04EB8603BEF1000F83ED55
:102B1000005A40F3A2806049F0EE476A06EB0802D3
:102B200002EA0003B1EC016A04EB8303D3ED007AFF
:102B30008D4202F10102A7EEA77AE6EE276AEFD1F5
:102B400037EE016AC4EE867A35EE666ABAF1000F96
:102B500074D087ED006A24EE479AF0EE649AE9EEAD
:102B6000279A29EE869AF0EE649AE2EEA59A26EE6E
:102B7000046AA9EEE65A27EE467AB5EEC09AA7EEA9
:102B8000275AF1EE10FAB5EEC05A48BFB1EE499A95
:102B9000F1EE10FA48BFB1EE455AB4EEC59AF1EE27
:102BA00010FA13DD70EE233AF4EEE03AF1EE10FA8B
:102BB00047DC33EEE83AB4EEC83AF1EE10FA47D506
:102BC000B0EE483AF0EE483A4FF0010B23EEA37A0C
:102BD00066EE276A67EE215AB0EE646A65EE877A80
:102BE000BEF1000F67EE825AA5EEC46A13DD2A4BD0
:102BF00006EB080101EA000204EB8202D2ED007A42
:102C000093ED007A66EEA77A0131E6EE077AE3ECFF
:102C1000017A9D42EED104370644B94506EA000622
:102C20007FF46DAFBBF1000F1CD1BDEC048B194BD1
:102C3000C3ED005A164B1E60BDE8F08FC7ED006A69
:102C400089E7B0EE603AF0EE603A4FF0010BBDE775
:102C5000F0EE433A4FF0010BB8E7DFED147AF0EEF7
:102C6000476A71E7044B83ED003ADEE7704700BF27
:102C7000CC84002038C0FF1F74BCFF1F8CC0FF1F16
:102C800020C1FF1FC4C0FF1FA09A012028BCFF1F46
:102C9000005E012044BCFF1FA8DE002030F60120AA
:102CA000249A0020FFE6DB2E00000000F9021550F8
:102CB00048C0FF1F9140012030BCFF1F14C1FF1FFF
:102CC00080C1FF1FECD501202DE9F04194000A34AA
:102CD000B5EEC00A24F00704F1EE10FA00AF154675
:102CE000ADEB040D0E460DD480460846694625F02E
:102CF00055F82B4642466946404625F047F9BD4601
:102D0000BDE8F081694625F049F82B463246694610
:102D1000304625F03BF9BD46BDE8F0812DE9F04F86
:102D20002DED048BCE4BCF4A1B78CF49DFF8F083D3
:102D3000D1ED000ACD4CDFEDCE7ADFF8E8B3CD4817
:102D4000CD4ECE49CE4DCBF8006003EBC30302EB72
:102D50008303D3ED018ACB4E05600123B8EEE07A00
:102D6000C8F800304FF080432360C74BDFF8B8A3AA
:102D7000196083B0C7EE270AC44FDFF8B093C44D83
:102D8000B2EE040A26F07AF84FF07A533360C14E5F
:102D9000CAF8007000273770BF4AC049C04FDFF83B
:102DA00090E30B604FF07C56C9F800303E60BD4B9D
:102DB000BD4E1078CEF80030BC4B85ED000AFBEE1E
:102DC000EE8A3360002840F01B81B94BDFEDB96A11
:102DD00093ED007AB8EEC77AC7EE267AB64BB749BC
:102DE0001A68B74B019302EBC20201EBC202B54F66
:102DF000B54ED2ED100AC3ED007AB8EEE07AF3EEEC
:102E0000047AC7EE270AB2EE040A26F037F8D8EDA6
:102E1000007A9BED008A87ED000AF8EEE77ABFEEB4
:102E2000009A67EEA87A67EE887A17EE900A28F083
:102E30005BFA41EC100B25F033FC51EC100B28F041
:102E400057FDA24AA2491268086068EE887A1044C9
:102E5000A04A89EE270A106025F012FF019B9E4AC6
:102E6000D3ED007AB7EE008A68EEA77A38EE407AA2
:102E700089EE270A82ED007A25F002FFDAED007A6A
:102E8000964B68EEA77A38EE407A89EE270A83EDF2
:102E9000007A25F0F5FE7B4BD3ED007A904B68EE7F
:102EA000A77A38EE407A89EE270A83ED007A25F07A
:102EB000E7FED8F800308B498B4A07EE103A78EEDF
:102EC000407AB8EEC70A38EE677AB1EE400AC1ED33
:102ED000007A82ED007A25F0D3FE6B4BD7ED006AC5
:102EE000D3ED007A94ED005A95ED007ADFED7F5A2C
:102EF0007F4A804B38EE400A27EE266A20EE270AEA
:102F000027EE057A60EE257A67EE265AC7EE866AC6
:102F100088EE277A87EEA50AC2ED006A83ED007A73
:102F2000C6ED007A25F02EFFD5ED005AD6ED006AE9
:102F30009FED717A94ED006AD9ED000A6F4A704BEB
:102F4000C8EE257AB5EE400A78EE677AF1EE10FA0F
:102F500067EEA67A08BFB0EE470AC7EE806A88EE31
:102F6000067A70EEC87AF2EE000A67EEA00AB2EEB8
:102F7000040AC2ED006A83ED007A25F07FFF95ED2B
:102F8000007AD7ED006AD6ED004A94ED005A444B22
:102F9000DFED5C5A67EE266AB0EE406A84EEA67AF0
:102FA00078EE467A93ED000A574B67EE277A68EE83
:102FB000806AE6EE057A89EE260A67EEA57AC3ED09
:102FC000007A25F05DFE384B504A93ED007A504B65
:102FD00078EE407A68EE876A38EE677A89EE260ADC
:102FE00083ED007AC2ED007A25F04AFE494B38EEB7
:102FF000400A83ED000A03B0BDEC048BBDE8F08FFE
:10300000454B93F90030013B042B04D8DFE803F073
:103010000F1F929CA800264BDFED266A93ED007AE5
:10302000B8EEC77AC7EE267A00231370D6E61F4E95
:103030001F4BC9F800604FF47A6638481E604FF0A5
:103040008043CAF800000B60F1EE007AECE7184B01
:103050004FF4FA60F0EE007A1860C1ED007AE3E711
:1030600058BCFF1FDC160300A4C0FF1FC49800203B
:103070000000484318BCFF1F6F12833A9A99993E8B
:103080003333333FE85D0120F8A601200AD7A33B84
:103090001CB8012014F7FF1FD8610020644D0120E7
:1030A00000F5FF1F0000A04024990120CDCCCC3DAD
:1030B00064BCFF1F00007A4428C1FF1F903D002020
:1030C00004990120782D0020A0DE002018C1FF1FE8
:1030D000604D0120340701208C27012054CFFF1FB1
:1030E0003C160220AC8200208CD1012072F97F3F77
:1030F000E0D501200CB001209595E624ECA7012035
:1031000050A701206F12233FF4F1FF1FBCD1FF1F16
:10311000DC61012088CF012051BCFF1FCDCC4C3D8C
:10312000B8D1FF1FACD50120ECE600209082002032
:1031300014B8012010484FF4FA764FF07E53066021
:103140000B60F6EE007A6FE700230B480B60FA2164
:103150004FF07E530160C9F80030F5EE007A63E766
:10316000002305480B6032214FF07E530160C9F8FF
:103170000030DFED027A57E764BCFF1FCDCC4C3D39
:103180002DE9F0432DED0C8B9FEDE38AF4EEC80A98
:10319000F1EE10FA83B0F0EE40CA80460D4691463B
:1031A00080EE21BA00F1C580DFEDDC7AF4EEE70AAB
:1031B000F1EE10FAC0F2F7809FEDD99ADFEDD97ADF
:1031C00070EEC90AB6EE006A20EEA79A29EE066AEA
:1031D000B7EE00CADFEDD45AF0EE4C6AB0EE4C7A8E
:1031E000B0EE4C5AC6EE267A76EE856A67EEA77A7E
:1031F00027EE277A3CEE07CA6CEE257AB4EEE77A22
:10320000F1EE10FAEEDAB9F1000F40F09A806F4259
:10321000AF423C467BEE0BCA80F2868007EE905AA6
:10322000DFEDC18A9FEDC1AAF8EEE7AA4646B7EEE8
:10323000008AF6EE009A07EE904AF8EEE7BAB0EE92
:10324000487ACBEEAA7AA7EEE77AB1EEC70AB4EED7
:10325000400AF1EE10FA40F0598120EE090AF7EE2B
:10326000006A20EE290AB0EE666AB0EE667AC0EE19
:10327000067A36EE086A67EEA77A27EE277A76EEA8
:10328000876A66EEA87AB4EEE77AF1EE10FAEEDA23
:1032900086EE8CDA6BEE8ABA002C00F034816BEE8D
:1032A000ACBAB0EE6B0A25F0BDFB80EE2B0A0234FF
:1032B000AC4220EE2C0A20EE0D0AA6EC010ABADB85
:1032C000B9F1010F23D0B9F1020F4BD0B9F1030FBF
:1032D0002AD1002D1BDBDFED958A3C464646AF1C0C
:1032E000B8EE008A07EE904AB8EEE70A023420EE04
:1032F000280A20EE0B0A25F0E9FAD6ED007A20EE36
:10330000080ABC4267EE807AE6EC017AEAD105EB66
:10331000D5756E1008EB8606D6ED007AB7EE007A0A
:1033200077EE877AC6ED007A03B0BDEC0C8BBDE872
:10333000F0839FED7F9AB7EE00CAB9F1000F3FF41A
:1033400066AFB9F1010F4DD0A9F10203012B40F294
:10335000C980B9F1040F51D06F42BD423C463FF7DE
:103360005DAFB0E7002DDFDB9FED708A3C4646463F
:10337000023507EE904AB8EEE70A023420EE080A5A
:1033800020EE0B0A25F0A2FAD6ED007A30EE000A04
:10339000AC4267EE807AE6EC017AEAD103B0BDEC8C
:1033A0000C8BBDE8F08330EEC88ADFED620ACDED0C
:1033B000011AB0EE480A8DED001A25F05FFDDFED31
:1033C0005E0ADFED5E7ADDED011A9DED001A68EE12
:1033D000200AB6EE006AE0EE270AB0EE609A20EE10
:1033E000866AF5E605EBD57525F001056F42AF421B
:1033F0003C46F1EE4BCAFFF611AF88E705EBD575F9
:1034000025F001056A1E5300002B07DD002108EBA3
:10341000C202434643F8041B9342FBD108EB8503E9
:103420004FF07E52002D1A607FF77EAF6B109FED3C
:103430003E8ADFED3E8A4646C5F10207C3F1000829
:103440000124B5EB440F45D007EE907AB8EEE77A49
:1034500007EE905AF8EEE77AB7EE000AC7EE276A51
:10346000A6EEE60AF1EEC07AF4EE677AF1EE10FA13
:1034700044D167EE897AF6EE005AF7EE006A67EEFD
:10348000A55AB0EE666AB0EE667AF0EE664AC5EE10
:10349000867AB7EE005A67EEA77A36EE246A27EEF0
:1034A000277A76EE876A66EE887AB4EEE77AF1EEEE
:1034B00010FAECDA08EB040307EE903AF8EEE77A3C
:1034C00086EE8C6A67EEA87A85EE277A67EE067A32
:1034D000C6ED037A0234A54206F1100607F104078F
:1034E000AFDA21E705EBD57525F001056F42BD4246
:1034F000C1EE21CA3C463FF791AEE4E625F066FEF8
:10350000F0EE407AB5E7B7EE000AD0E6B0EE470A33
:1035100025F05CFEA1E600BF14AEA74100004842C2
:10352000295C0B418AB0E13D5F708930DB0FC93FF8
:1035300000000000CDCCCC3E5A81A13D228E153F2B
:1035400080EE010A2DE9F041531E002AC0EE810AE7
:103550002DED108B0AEE103A30EEC09ADFED989AFE
:1035600030EE200AB8EECAAAF6EE00AA29EE2A9A90
:1035700060EE299A6AEE2AAA40F31E8105460E469D
:10358000002005EB82042B4643F8040BA34241F8CC
:10359000040BF9D18B4B9FED8CBA93F80080DFEDD3
:1035A0008BBA9FED8BDADFED8BCA9FED8BFADFEDE7
:1035B0008BEA9FED83CA1746002417E079EE098A4B
:1035C00029EE888A0134B0EE480A25F07FF968EECA
:1035D000807AB0EE480AE5EC017A25F023FA28EE6D
:1035E000800AA742A6EC010A00F0E68007EE904AA6
:1035F000F8EEE78A38EEEA8AB5EEC08AF1EE10FA04
:10360000D4BFF1EE487AF0EE487AF4EECB7AF1EEE0
:1036100010FAD3D408F1FF33032B00F29C80DFE8CB
:1036200003F067341F0228EE2B0A20EE090A25F06A
:10363000F9F9F0EE40FA28EEAB0AF6EE008A80EED9
:103640000A0A25F043F968EE0C6AF7EE007A8FEE6D
:10365000A67A37EEC00A67EE288A68EE808AAFE75E
:1036600028EE2B0A20EE090A25F0DCF9F0EE40FAEC
:1036700028EE8C0A80EE0A0A25F028F968EE0C7A0A
:10368000CFEEA78A68EE808A9AE728EE2B0A20EE12
:10369000090A25F0C7F9B0EE40EA28EEAB0A80EE41
:1036A0000A0A25F013F9F0EE40DA28EE8D0A80EED2
:1036B0000A0A25F00BF9F0EE40FA28EEAC0ADFED2D
:1036C000488A80EE0A0A25F001F968EE0C7ADFEDEF
:1036D000456A8EEE277AEDEEE68ADFED436ADFED8E
:1036E000437AEFEEA68AE0EE678A68EE878A67E79C
:1036F00028EE2B0A20EE090A25F094F9B0EE40EAF4
:1037000028EEAB0A80EE0A0A25F0E0F8F0EE40DA87
:1037100028EE8D0A80EE0A0A25F0D8F8F0EE40FA7D
:1037200028EEAC0ADFED328A80EE0A0A25F0CEF8E8
:1037300068EE0C7ADFED2F6A8EEE277AEDEEE68AE0
:10374000DFED2D6ADFED2D7AEFEEA68AE0EE678AD7
:1037500068EE878A34E728EE2B0A20EE090A25F066
:1037600061F9F0EE40DA28EEAB0A80EE0A0A25F0A5
:10377000ADF8B0EE40EA28EE8D0A80EE0A0A25F098
:10378000A5F8F0EE40FA28EEAC0AF0EE6E8A80EE74
:103790000A0A25F09BF868EE0C7AEEEE4F8A8DEE61
:1037A000A77ADFED177AEFEEA78ADFED167AE0EE63
:1037B000678A68EE878A03E7BDEC108BBDE8F0816D
:1037C000DB0F494030C0FF1F0AD7233CDB0FC94045
:1037D000DB0F4941E4CB96417975FA3E6827BA3E42
:1037E0003927B63EF88BF93E8EB1133E02814E3C2E
:1037F00014AEB73E2601FA3EB4AB103E795D3F3CB5
:10380000BDE00B3E02582E3C10B5A8B0502217491F
:10381000044668461FF0C6FC50220DEB0200144916
:103820001FF0C0FCADF10402002352F8041FA142B6
:1038300004D00133142BF8D128B010BD0D490A680B
:10384000002AFCDB28AA02EB83030B4913F8502C57
:1038500033F84E3C013A1203013B02F47F22C3F3DA
:103860000B0313430B6028B010BD00BFFC0803001E
:103870004C09030000F1024004F10240154B30B442
:103880001D6875B1144A154B154902EB850552F8B0
:10389000044B51F8040B1C60AA42586003F1080362
:1038A000F5D1104B1868431CB3EB400F09D20B4AFB
:1038B000002102EB830302EBC00243F8041B934296
:1038C000FBD1094B054918680022012330BC22F0C6
:1038D000CDBF00BF64C0FF1FF8A701207C2D0020D2
:1038E00008AC0120C0C0FF1F5C99002070B5224BBE
:1038F00022491A78224D9FED231A2B68DFED220A08
:10390000224802EBC20201EB8202D2ED011A01242D
:1039100004FA03F300EE103AF8EE611AF6EE007ABC
:1039200061EEA77AB8EEC00A002287EE800A042171
:10393000FFF726FC2B68062B0DDD154A1549164BA3
:10394000164C174893608B608022164B22700270D1
:1039500000221A6070BD144A104D11480C4E0D49DA
:1039600052F82320B2609C40E4B20E4B8A602C7067
:10397000002204701A6070BD58BCFF1FDC160300E3
:10398000BCC0FF1F0000000000007042F05D01207D
:1039900050FB00205CFB00204C110300E86100207C
:1039A0007C820020CC0C0020100B0300F8B5204FC7
:1039B000204D214C38464FF4784114F077FE2E68A4
:1039C00006EBC60604EBC606D6E90001D6E90223DB
:1039D000994208BF904211D3D6E904238B4208BF15
:1039E00082420BD396F83830DBB1012B0CBF4FF677
:1039F00020514FF4FC61384614F058FE0F4B0C4830
:103A0000BB6140F21511D42214F02EFE296808483B
:103A100001EBC10104EBC1011831BDE8F84021F010
:103A2000EBBB4FF6FF71384614F040FEE6E700BFEF
:103A3000B89E012028C1FF1F903D0020F423030001
:103A40009FED327AC7EE017A10B504462DED048B56
:103A5000B6EE009A21EE091AB0EE608AB4EE401A72
:103A6000F1EE10FA48BFB0EE410A67EE808AB0EE80
:103A7000680A24F0D7FF78EE080A80EE208AB0EEBC
:103A8000680A24F023FFB7EE007A78EE077AC7EED3
:103A9000276AE4B1022C02D0BDEC048B10BD70EE9D
:103AA000007A1B4B67EEA67A38EE477AC3ED037AAD
:103AB00068EE267A28EE668A002283ED028ABDEC43
:103AC000048B83ED047AC3ED007A5A6010BD77EE63
:103AD000407A38EE478A27EE899A0D4B29EE269ACE
:103AE00028EE268A83ED009A83ED029A83ED048AFC
:103AF000BDEC048B30EE000A66EEA77A20EE260AB3
:103B0000C3ED017A83ED030A10BD00BFDB0FC9408E
:103B10002082012009296BD8DFE801F00D18283A2E
:103B2000424A525A6205334BC21783FB0030C2EB44
:103B3000207318467047304BC21783FB0013C2EB4B
:103B4000A30303EB8303A0EB4303F2E72A49C21765
:103B500081FB0030C2EBA00281FB0231D317C3EB23
:103B6000A10303EB8303A2EB4303E2E7234A224BC7
:103B700082FB0012C017C0EB621283FB0230D31726
:103B8000C3EBA00303EB8303A2EB43031846704788
:103B90001B4A194B82FB0012C017C0EBA212ECE7C4
:103BA000184A154B82FB0012C017C0EB2232E4E723
:103BB000154A114B82FB0012C017C0EB6232DCE7E2
:103BC000124A0D4B82FB0012C017C0EBA242D4E791
:103BD0000F4A094B82FB0012C017C0EBA252CCE780
:103BE0000C4A054B82FB0012C017C0EB6262C4E7AF
:103BF00000239EE7A12FB844676666661F85EB51D8
:103C0000D34D6210AD8BDB6889B5F81483DE1B439E
:103C10006BCA5F6B893BE6552DE9F04F2DED028BAA
:103C2000002391B01646642228F058F8BC4BBD4AD8
:103C30001B6803EBC30302EBC30304469B6A062B1A
:103C40000D4600F006818EBBB74B04931B78DFF85E
:103C5000EC92002B00F08081B44BDFF8E4B20593C6
:103C60002046294627F0A4FFB14B07EE100AD3EDFA
:103C7000007A77EE277A4FF0080A17EE900A28F0BC
:103C800057F8D9F80030DBF80020AA49CDF820A079
:103C9000183304460598C9F800304432182381616E
:103CA000CBF8002006934FF4FC6112E09F4B059384
:103CB0001A46A14B9C4993614FF0100A3023DFF85C
:103CC0007C92DFF87CB20491CDF820A006934FF6E9
:103CD000FF71964814F0EAFC082529462046FFF7B4
:103CE00019FF10AB2B44013DEDB2FF2D03F80C0C76
:103CF000F3D1032303FB0AF30A939DF83B300793A8
:103D0000B7004FEA4A03DFF84C820993082403976F
:103D10001AE0082C00F04A81072C00F09D81062C47
:103D200000F06D81052C00F0BA81042C40F2E9818D
:103D3000039B334408EB43031D55013CE4B2FF2CC5
:103D400015D0052C40F20C82039B334408EB43034F
:103D50001A5D10AB234413F80C5CAA42D9D1049B22
:103D60009B5D002BD5D0013CE4B2FF2CE9D1F6B924
:103D7000079B002B40F08E809DF83A30002B40F0DE
:103D800089809DF83C30002B40F08480DBF80030C7
:103D9000D9F800200699019602331944083202230B
:103DA00009B212B20093614812F040F884E0059A1B
:103DB000604B9361079B23B99DF83A30002B00F0CC
:103DC0009880DBF80030D9F8002006995748023374
:103DD00019440F324FF6E074032309B212B28DE892
:103DE000180012F023F8DBF80010D9F800204F4833
:103DF000524D4FEACA04CAEB0403063919444FF680
:103E0000E07301930F32032312B2009309B212F050
:103E10000DF8049B4A4A9B5D9BB911682A68434888
:103E2000153154440732214412B209B214F01CFC7B
:103E30004FF4FC613D4814F039FC42493B48FEF721
:103E4000C9F9049A0123935511B0BDEC028BBDE86A
:103E5000F08F3D4B3D4A1B780018494103EBC303EB
:103E6000001902EB8303694193ED018A27F0A0FE5C
:103E7000B8EE488A07EE100AF6EE087AA8EE277A1E
:103E800017EE100A27F054FF314B012204460D466D
:103E90001A70D8E6DBF80030D9F8002006992348DC
:103EA0000233194408324FF6E074022309B212B209
:103EB0008DE8180011F0BAFFDBF80030D9F80020C7
:103EC0001A48043B03EBCA01083202234FF6E074A0
:103ED00012B28DE8180009B211F0A8FFD9F800203D
:103EE000DBF80030183A443BC9F80020CBF800302A
:103EF000A7E79DF83C30002B7FF463AF0799DBF810
:103F00000030D9F80020019106990848023319447D
:103F10000F32032309B212B2009311F087FF62E758
:103F200028C1FF1F903D0020B8940120B89E0120B9
:103F300030580120D8230300A42403006CC0FF1FC5
:103F40009CC0FF1F5C19030058BCFF1FDC16030058
:103F5000D5E60020FCBFFF1F854B05931F46D9F80F
:103F60000030DFF820B203F11A0212B238463146AF
:103F700014F07AFB7F4BBB617F493846FEF72AF984
:103F8000DBF80030D9F8002003F10A011A3212B22E
:103F9000384609B214F068FB38464FF6205114F049
:103FA00085FB38467549FEF715F959E6744BB9F9A2
:103FB0000020BBF900106E480B934FF000071F70F4
:103FC00014F052FB0B9BB9F900201978DBF8003094
:103FD0000020019019440AF102000090089B6448F7
:103FE00009B211F023FF9DF83C30002B3FF4A0AE46
:103FF00000230A2229465E4821F04AF998E6DBF8B8
:10400000003009995E4FB9F900205948194409B2A6
:1040100000233B700B9314F027FB38780B9BDBF8E5
:1040200000100193099BB9F90020014419440AF1D9
:104030000203009309B2089B4D4811F0F7FE9DF86A
:104040003A30002BD4D1079B002BD1D19DF83C30C6
:10405000002B3FF46DAECBE7DBF80030484FB9F9E9
:10406000002043485146194409B200233B700B938A
:1040700014F0FAFA3878DBF800100B9B0193014436
:104080000AF1020351440093B9F90020089B384813
:1040900009B211F0CBFE079B002BD7D0A8E7DBF8C5
:1040A00000100A9F364BB9F9002031480B9301F1FB
:1040B000090E3946714409B24FF0090E83F800E049
:1040C00014F0D2FA0B9BB9F900201978DBF8003014
:1040D00027480B44394619444FF0000E0AF10203F9
:1040E0008DE8084009B2089B11F0A0FE9DF8393018
:1040F000002B7FF47DAF9DF83A30002B7FF478AF32
:10410000A1E71F4BDBF8001093F800C00B93C4F13C
:10411000080E1EFB0AFE1FFA8EF361441944B9F91A
:104120000020134809B21F4614F09EFA0B9BB9F900
:1041300000201978DBF800300D480B44394619444B
:1041400000270AF102038DE8880009B2089B11F0EC
:104150006DFE3B460A222946054821F099F8E7E51D
:10416000074B0922022C1A709CBF12221A70EBE531
:10417000B89E0120F02A0300E81E03004019030046
:10418000980400209CC0FF1F00B5C0EB0010400049
:1041900000F587732DED028B08EE103ADFED247ADF
:1041A000B8EEC88A87B028EE278AB0EE480A24F015
:1041B0008DFBF0EE408AB0EE480A24F033FCF3EEBB
:1041C000036AB3EE057ADFED1B7A1B48B2EE0E6A86
:1041D000F0EE475AA0EE267A4FF6FF730193E0EE19
:1041E000065AB0EE675AA8EE865AE8EEA67ABDEEF9
:1041F000C77AFDEEE56A8DED037AFDEEE77ABDEE56
:10420000C57ACDED056ABDF914308DED027ACDED9C
:10421000047A0093BDF90C20BDF90830BDF91010E7
:1042200012F098FB07B0BDEC028B5DF804FB00BFF9
:10423000295C8F3C00009543B89E012010B582B0E8
:104240004FF6FF7415231A4600944FF495711248E7
:1042500012F0B8FA0094142315224FF495710E4809
:1042600012F0B0FA0094002315224FF495710A4819
:1042700012F0A8FA0094012315224FF49571064814
:1042800012F0A0FA002420460134FFF77DFF0C2C29
:10429000F9D102B010BD00BFB89E01202DE9F04356
:1042A000DFF83881484D494E494F98ED006AD7ED07
:1042B000007AD5ED006A96ED007ADFF824912DEDB5
:1042C000048B9FED449AF3EE059A36EE296A76EE5A
:1042D000896A37EE297A77EE897ABDEEC66A87B0A9
:1042E000FDEEE66ABDEEC77AFDEEE77A8DED056A72
:1042F000CDED026A8DED037A4FF0000ECDED047A1C
:10430000BDF91430BDF90C20BDF91010CDF804E052
:1043100000EB4000440000934846BDF9083012F01D
:1043200019FB04F5877308EE103ADFED2B7AB8EE2F
:10433000C88A4FF4784428EE278AB0EE480A24F061
:10434000C5FAF0EE408AB0EE480A24F06BFBF2EEBC
:104350000C7A30EE007A20EE270A68EEA77A37EE64
:10436000296A77EE896A78EEA88A70EE299A38EE83
:10437000899ABDEEC66AFDEEE66A8DED056ACDED61
:10438000046ABDEEE96AFDEEC96ABDF914308DED2F
:10439000036ACDED026A009301944846BDF90830E6
:1043A000BDF90C20BDF91010C7ED007A88ED007A38
:1043B00086ED000AC5ED008A12F0CCFA07B0BDEC1C
:1043C000048BBDE8F08300BF64580120E49601200F
:1043D00010B0012000009543295C8F3C70C501207E
:1043E000B89E01202DE9F043DFF83881484D494E51
:1043F000494F98ED006AD7ED007AD5ED006A96ED49
:10440000007ADFF824912DED048B9FED449AF3EEB2
:10441000059A36EE296A76EE896A37EE297A77EEC2
:10442000897ABDEEC66A87B0FDEEE66ABDEEC77A50
:10443000FDEEE77A8DED056ACDED026A8DED037A2A
:104440004FF0000ECDED047ABDF91430BDF90C200B
:10445000BDF91010CDF804E000EB400044000093DB
:104460004846BDF9083012F075FA04F5877308EE76
:10447000103ADFED2B7AB8EEC88A4FF6FF7428EEBB
:10448000278AB0EE480A24F021FAF0EE408AB0EE16
:10449000480A24F0C7FAF2EE0E7A30EE007A20EEE7
:1044A000270A68EEA77A37EE296A77EE896A78EEEE
:1044B000A88A70EE299A38EE899ABDEEC66AFDEE9A
:1044C000E66A8DED056ACDED046ABDEEE96AFDEEA2
:1044D000C96ABDF914308DED036ACDED026A00930F
:1044E00001944846BDF90830BDF90C20BDF9101003
:1044F000C7ED007A88ED007A86ED000AC5ED008AE6
:1045000012F028FA07B0BDEC048BBDE8F08300BFC1
:104510001CF7FF1F542D002018F7FF1F00009543C4
:10452000295C8F3CC4D50120B89E0120F24B2DE9B7
:10453000F04FD3ED006AF14BDFF8DCB393ED007A76
:10454000EF4B9BED006AD3ED007AEE4DDFF8CC9394
:10455000DFF8CC83EC4FED4E2DED0A8B9FEDEC8A0E
:104560009FEDECCAF3EE058A36EE286A76EE886A8D
:1045700037EE287A77EE887ABDEEC66A87B0FDEE10
:10458000E66ABDEEC77AFDEEE77A8DED056A4FF07B
:10459000000ACDED026A8DED037ACDED047ABDF906
:1045A0001430009301EBD1714FEA610CC0EB001E97
:1045B000BDF90830BDF90C20BDF91010CDF804A0EC
:1045C00028460CEB4E0412F0C5F9CB4B99ED006A6E
:1045D00093ED007ADBED006AD8ED007ACDF804A007
:1045E00036EE286A76EEA86A37EE087A77EE887A91
:1045F000BDEEC66AFDEEE66ABDEEC77AFDEEE77A6D
:104600008DED056ACDED036A8DED047ACDED027A6C
:10461000BDF914300093BDF90C20BDF91010BDF99F
:104620000830284612F096F997ED006AD9ED006A35
:1046300098ED007AD6ED007ACDF804A036EE286A1F
:1046400076EEA86A37EE087A77EE887ABDEEC66A0B
:10465000FDEEE66ABDEEC77AFDEEE77A8DED056AFE
:10466000CDED036A8DED047ACDED027ABDF91430FB
:104670000093BDF90C20BDF91010BDF90830284693
:1046800012F068F99D4B97ED007A93ED006A9C4B10
:10469000D6ED007AD3ED006ACDF804A036EE286A94
:1046A00076EE886A37EE287A77EE887ABDEEC66AAB
:1046B000FDEEE66ABDEEC77AFDEEE77A8DED056A9E
:1046C000CDED026A8DED037ACDED047ABDF914309B
:1046D000BDF90C20BDF9101000932846BDF9083033
:1046E00012F038F904F587730AEE103AB8EECAAA48
:1046F000F1EE08AA2AEE0CAA4FF6FF7AB0EE4A0AAB
:1047000024F0E4F8F0EE409AB0EE4A0A24F08AF978
:1047100004F58D730BEE903AB2EE06AAF8EEEBBA02
:1047200039EEA97A764B88ED007A69EE8A9A6BEEBB
:104730008CBA70EE007AC3ED009A20EE0AAA6F4B95
:10474000C9ED007AB0EE6B0A83ED00AA24F0BEF842
:10475000B0EE40BAB0EE6B0A24F064F904F5817350
:1047600009EE103AB8EEC99A60EE2ABA29EE0C9A10
:10477000614BCBED00BA2BEE2ABAB0EE490A83EDBD
:1047800000BA24F0A3F87BEEA8BAB0EE40CAB0EEAF
:10479000490A24F047F93BEE08BAFDEEEB7A3AEE0F
:1047A00028AACDED057AFDEECB7A79EE889ACDED8B
:1047B000027AFDEECA7A20EE2A0ACDED037AFDEEEA
:1047C000E97ABDF91430CDED047A6CEE2A7A0093C3
:1047D000BDF90C20BDF90830BDF91010CDF804A0CA
:1047E000284687ED000AC6ED007A12F0B3F8424B76
:1047F00099ED006AD3ED007AD8ED006A9BED007A5E
:10480000CDF804A036EE286A76EE886A37EE287A6C
:1048100077EE887ABDEEC66AFDEEE66ABDEEC77A2F
:10482000FDEEE77A8DED056ACDED026A8DED037A36
:10483000CDED047ABDF914300093BDF90C20BDF91B
:104840000830BDF91010284612F084F897ED006A80
:10485000D6ED006A99ED007AD8ED007ACDF804A083
:1048600036EE286A76EE886A37EE287A77EE887A0E
:10487000BDEEC66AFDEEE66ABDEEC77AFDEEE77AEA
:104880008DED056ACDED026A8DED037ACDED047AEA
:10489000BDF914300093BDF90C20BDF90830BDF905
:1048A0001010284612F056F8144BD7ED006A93ED1D
:1048B000006A134BD6ED007A93ED007ACDF804A090
:1048C00036EE286A37EE087A76EEA88A37EE888ABE
:1048D000FDEEC67A2846CDED057AFDEEE87ABDF903
:1048E0001430CDED037AFDEEC77A0093CDED027A58
:1048F000FDEEC87A16E000BF4C580120F08101207F
:1049000044580120B89E0120FC810120505801200C
:1049100000009543295C8F3CF8810120F48101203F
:1049200048580120BDF90C20CDED047ABDF90830BE
:10493000BDF9101012F00EF807B0BDEC0A8BBDE8FF
:10494000F08F00BF2DE9F04F83B00FF0C5FFDFF807
:104950006C91DFF86C8189FB0034C017C0EBA400B8
:1049600089FB0034C317C3EBA40404EB8404A0EB5D
:104970004404E3B200930FF0AFFF89FB0023C2179A
:10498000C2EBA30303EB8303A0EB4303DFB20FF0FF
:10499000B3FF89FB0035C017C0EBA50089FB0035CC
:1049A000C317C3EBA50505EB8505A0EB45050FF087
:1049B000A3FF89FB0023C217C2EBA30303EB83030E
:1049C000A0EB4303DEB20FF0A7FF89FB0023C01763
:1049D000C0EBA30089FB003AC317C3EBAA0A0AEB9A
:1049E0008A0AA0EB4A005FFA80FA0FF095FF89FB74
:1049F0000023C217C2EBA30303EB8303A0EB430323
:104A000098F800205FFA83F94A45EDB203D00FF021
:104A100083FFFFF743FCDFF8ACB0214C9BF800307C
:104A2000B34227D00FF068FFFFF7DCFC0FF054FF14
:104A300001900FF061FF019A01461046FFF776FDE5
:104A40001848194990F800E0184A81F800E08BF8FE
:104A500000601748174E18499DF800301770012262
:104A600088F800903370057081F800A0227003B0C0
:104A7000BDE8F08F2278002AD4D00FF04DFF0190CE
:104A80000FF03AFF019A01308242CBD00FF044FF81
:104A900001900FF031FF019A02308242D0D1C1E77C
:104AA000EC98012040BCFF1FE8F1FF1FA55E01202C
:104AB000883D0020D00C00206C4D012067666666A2
:104AC000E8A701200C990120664A9FED675AD2EDB4
:104AD000006A664ADFED665A92ED007A6549664AD9
:104AE0002DE9F041654D664C2B78664FDFF8B881B3
:104AF000D7ED007A644EF8EEE66A03EBC30386EE68
:104B0000856A04EB830393ED010A88ED006A67EE82
:104B1000656A27EE257A2DED048BB2EE008AB8EE99
:104B2000400A66EE886A27EE087AC6EE805AC7EE1B
:104B3000006AB8EE007A67EE877AC2ED006A67EE27
:104B4000867AC1ED005A67EE887AF7EE008A87EE22
:104B5000800A24F095F82B7803EBC30304EB83035E
:104B6000D8ED006AD7ED007A93ED017A67EEE67A28
:104B7000B8EE477A67EE887A78EEC06A87EE870AE1
:104B8000C6ED006A24F07CF898ED007A2B78D7ED1A
:104B9000007AE7EE478A03EBC30304EB8303B0EE2E
:104BA000409AB1EEE80A27EE888AD3ED017AB4EE96
:104BB000400AF8EE677AF1EE10FAC8EE279A4CD167
:104BC00029EE800A23F082FE2B78304AD6ED007A57
:104BD00092ED007A2E4AB7EE008AB0EE486A03EBF7
:104BE000C303A9EE406A04EB830393ED010AF0EEE0
:104BF000006AB8EE400AD6EE267A20EE070AFAEEF0
:104C0000008A88EE800AC2ED007A24F039F82B7809
:104C10002049214A81ED000A03EBC30304EB83041E
:104C200078EE407A94ED010A92ED007A1B4AB8EED4
:104C3000400AC2ED007A20EE070A88EE800A24F0CE
:104C40001FF8174B174A38EE408A82ED000A83EDB1
:104C5000008ABDEC048BBDE8F081B0EE680A24F058
:104C6000B5FAADE740C0FF1F0000C8427CC0FF1F7F
:104C7000DB0FC940D4610120ECF1FF1F58BCFF1FBE
:104C8000DC1603003CC0FF1FA89A01205CC0FF1F78
:104C9000AC9A0120B084002014C0FF1FB4940120FE
:104CA00034820120A4820020B09A01200E4B0F48CC
:104CB00010B500241C701EF07DF80D481DF01CFC82
:104CC0000C4A0D49136809680C4801338B42136084
:104CD000A4BF2346146000EB0310094900231022EF
:104CE000BDE8104020F064BC64060120F8F1FF1F0D
:104CF000700601204007012008F5FF1FD084002026
:104D0000F09801200E4B0F48002210B51A701EF0CB
:104D100051F80D481DF0F0FB0C4A1368013B002BC5
:104D2000136003DA0A4B1B68013B136009480A4908
:104D300000EB031010220023BDE8104020F038BC27
:104D400064060120F8F1FF1F7006012040070120D2
:104D500008F5FF1FD0840020F098012010B5074C03
:104D60000748237883F001031946237019F03AFAB3
:104D700021780448BDE8104019F034BAD4E6002088
:104D8000F8F1FF1F7006012008B5074810F04AF936
:104D9000012807D10548064A0649074B00881288B2
:104DA00008801A8008BD00BFD0F1FF1F2E1E022010
:104DB0002C1E0220281E0220AC1D02202DE9F04FDF
:104DC0002DED028BB64B1B7887B0002B3FD0012B0B
:104DD00033D0B44FD7ED007A4FF000090023B24E24
:104DE000B24D96ED007AB24C77EEC77A9FEDB17A6C
:104DF000F5EEC07AF1EE10FAD8BFF1EE677AF4EE74
:104E0000C77AF1EE10FA01D4002B41D1AA4B2A88BF
:104E10001B782188012B23D0002410230432623117
:104E20008DE81800A54812B209B2642310F0FEFF05
:104E300007B0BDEC028BBDE8F08FA14B994FD3F8C2
:104E40000090D7ED007ADFF8A0820023C7E7954FE6
:104E5000DFF89882D7F80090012307EE909ABEE71A
:104E6000964C0432623112B2204609B213F0FCFBB8
:104E7000944BA36120464FF6FF7113F017FC2046B8
:104E80009149FDF7A7F907B0BDEC028BBDE8F08FA3
:104E9000DFF828A2B5F90020B4F900109FED8B8A45
:104EA0004FF0000E10238DE808405046642310F0A8
:104EB000BDFF484626F018FA854ACDE900011421C5
:104EC000844828F047F8844BB5F90020CAF8183018
:104ED000B4F90010504613F0C7FB50464FF6FF716F
:104EE00013F0E4FB7B495046FDF774F92A882188CA
:104EF0007A4BCAF818300532383112B209B250462E
:104F000013F0B2FB50464FF4FC6113F0CFFB414667
:104F10005046FDF75FF9D7ED007A37EE888AC6ED87
:104F2000007AF1EE087A88EE277AF2EE027A37EE0E
:104F3000277AB5EEC07AF1EE10FA00F19881B4EE5E
:104F4000E77AF1EE10FA40F39781B0EE677ADFF876
:104F5000A0A1634BBAF90010B3F90030614E574875
:104F6000328807EE901AF8EEE76A07EE903A4FF0B3
:104F7000090E0127B8EEE76A13FB0E73F0EE005A34
:104F8000B0EE655A07EE903AA7EE065A39443A4415
:104F9000E7EE066A1F2309B2F8EEE77A76EEA56A15
:104FA000E7EE467A12B20093BDEEC57AFDEEE77ADF
:104FB0008DED047ABDF91090CDED057ABDEEE67A5F
:104FC0004B468DED037ABDF91480BDF90C7010F0DD
:104FD000B3FD3288394803974FF0000B0132394650
:104FE000434612B2CDF800B010F0A6FD3288BAF8F0
:104FF000001032484FF6FF77023201314B4612B2B1
:1050000009B2009710F098FD3288039F2B48CDF825
:1050100000B002324346394612B210F08DFD32889C
:10502000BAF8001025484FF6FF73033201310093A0
:1050300012B24B4609B210F07FFD32881F48CDF8FE
:1050400000B003324346394612B210F075FD328883
:10505000BAF8001019481F2304320131009312B22C
:105060004B4609B210F068FD32881448CDF800B004
:1050700004324346394612B210F05EFDF3EE0E7A6A
:10508000B4EEE78AF1EE10FA34DCB5EEC08AF1EE48
:1050900010FA7FF7BBAEF1EE047A88EE275A2DE0C6
:1050A00068C1012098C0FF1F60C0FF1F24F7FF1FC9
:1050B00024490120CDCCCC3D98820020B89E01200F
:1050C000E4BFFF1FFC4303006C1903000000924281
:1050D00060190300E8980020102403002C3103001D
:1050E00044C0FF1F54A701205819030050190300A2
:1050F000ECBFFF1FB0EE678AB1EE085A604BBAF9F9
:105100000070B3F90010B6F900205E4807EE901A5F
:10511000F8EEE75AF1EE047A25EE888A0923C8EE04
:10512000276A11FB03734FF0010E77444FF4784B5D
:10513000CDF800B007EE903AF8EEE77A0623E5EEF8
:10514000857A11FB03E301EBC10107EE103AB7EEDC
:10515000006A76EE865A77EE867AB8EEC77ABDEEAA
:10516000E56A37EE667AFDEEE77A8DED036ACDEDFE
:10517000057AFDEEC77ABDF90CA0CDED047A0F4497
:105180003FB2BDF91090BDF914803946534610F076
:10519000D3FC0023B6F900203A48009341464B4621
:1051A00010F0CAFC32883748CDF800B001325346BF
:1051B000394612B210F0C0FC328832480023013266
:1051C000009341464B4612B210F0B6FC32882D488F
:1051D000CDF800B002325346394612B210F0ACFCA2
:1051E0003288284800230232009341464B4612B2CF
:1051F00010F0A2FC32882348CDF800B003325346A9
:10520000394612B210F098FC32881E48002303324F
:10521000009341464B4612B210F08EFC328819487A
:10522000CDF800B004325346394612B210F084FC77
:105230003288144800230432009341464B4612B290
:1052400010F07AFC32880F48CDF800B00532534692
:10525000394612B210F070FC32880A480023053239
:10526000009341464B4612B210F066FCCEE59FED2E
:10527000067AB0EE478A6AE69FED038A67E600BFCA
:1052800044C0FF1FB89E0120000000002DE9F04738
:10529000ADF5267D314B01930DF1070900268046BF
:1052A000CA46344640F28F2730461EF00DF90AF800
:1052B000010F4440082514F0010F4FEA540314BFB6
:1052C00083F08C04C4F34704013DF4D10136BE429F
:1052D000EAD1DCB90DF29222214922481FF0CAFF1F
:1052E0009DF895229DF807309A4205D19DF89422A9
:1052F0009DF806309A4215D001AA1B4919481FF0A3
:10530000B9FF00200DF5267DBDE8F0871C21174868
:105310001FF07EFB13481FF095FF28460DF5267DF4
:10532000BDE8F0879DF893229DF805309A42E3D1BD
:105330009DF892229DF804309A42DDD108F1FF38A1
:105340000DF2972319F8012F08F8012F9945F9D18B
:1053500007490448FCF74CFF0120D3E76D72310088
:1053600070190300D8C4FF1F94190300BC1903006F
:10537000881903002DE9F04FADF5277D02A8FFF74E
:1053800085FF002800F0B080DDE90201594C5A4A3F
:105390005A4D5B4B049E2E60C4E90001012111703F
:1053A00030A8194604AAF2E902458242E1E8124512
:1053B000F9D1544A31A8A2F5C66150F8044F8C6265
:1053C00048319142F9D14E4947A850F8044FCC6278
:1053D00048319142F9D14A495DA850F8044F0C6315
:1053E00048319142F9D173A951F8040F58634833F9
:1053F0009342F9D1909B01930198DFED436A434BAF
:105400008B9ADFF864A11A6007EE900AF8EEE77A4B
:105410008A9BDFF85891CAF8003087EEA67A8C9BF9
:10542000DFF84C81C9F80030DFF848C19DF83492AC
:1054300088F80090DFF840E1DDF83882CCF8008091
:10544000334FDDF83CC2CEF800C0324E9DF844E246
:1054500087F800E03049929F304D3760304C939E82
:1054600008602E602F48949D25602F49959C04600C
:10547000DFF808B196982D4A2D4B989D08609DF84D
:105480005C12999C8BED007A2A4811701D602A4BA2
:105490009A9D2A491C600560294B9DF86C02294C95
:1054A00008709D9D9DF86D12274A28481970256047
:1054B0009C9E9E9C2649274B16600460A09A9DF8EE
:1054C0007C0208701A60244EA19F244CA29D24499E
:1054D000A398244BBDF890223760256008601A809D
:1054E0000DF5277DBDE8F08F034B18700DF5277D76
:1054F000BDE8F08F38BCFF1F04AC0120F4A70120E9
:10550000903D0020C04300200000C842A0C0FF1F03
:1055100058BCFF1FA082002040C0FF1F14BCFF1F0B
:1055200010C0FF1F64BCFF1FA4C0FF1FB0C0FF1F3F
:10553000B45E01205CBCFF1F9C0400209982002007
:1055400029C0FF1FACC0FF1F1CC1FF1FBCC0FF1F35
:10555000A45E012010C1FF1F18C0FF1FF8C0FF1F6D
:10556000843D00204CC0FF1F28C1FF1FB4C0FF1F97
:1055700051BCFF1F7CC0FF1F3CC0FF1FB09A012021
:105580002DE9F8430025471E2C46A84640F28E29F7
:1055900017F8016F0823744014F0010F4FEA54020A
:1055A00014BF82F08C04C4F34704013BF4D12846B5
:1055B0001DF08AFF86420BD0314628461DF09EFF23
:1055C00028461DF081FF3B78834216D108F101087F
:1055D00001354D45DCD1214628461DF08FFF284678
:1055E0001DF072FF84420CD142460B4B0B490C4814
:1055F0001FF040FE0020BDE8F883214628461DF03C
:105600007DFF182107481FF003FA05481FF01AFE16
:105610000120BDE8F88300BFF8190300FC1903005E
:10562000D8C4FF1FDC190300F0B5614A6148624B22
:10563000624900681B68D2E90067ADF5277DA6AD19
:1056400065E9A4670A46C5F82002AB6030A804AB40
:10565000F2E81267E3E902678342F9D1574831AAB9
:1056600047AB846A42F8044F9A4200F14800F8D1EF
:1056700052485DAAC46A43F8044F934200F14800BF
:10568000F8D14E4873AB046B42F8044F9A4200F1D4
:105690004800F8D189A84A6B43F8042F834201F1EE
:1056A0004801F8D1464A474B4748DFF87CE1474F6D
:1056B000474E484C4849D2F800C01B680068474A2A
:1056C000DEF800E03F68366824680968C5F82432CF
:1056D000C5F83402424B4348C5F830E2C5F8407281
:1056E00092F800E0C5F84462C5F85842C5F85C126B
:1056F0003D4F3E4E3E4C3F493F4A1B6800683F7855
:105700003668246809681278C5F82832C5F8380266
:105710003A4B3B4885F83C72C5F84862C5F84C42A4
:10572000C5F8501285F85422364E374C3749384A5E
:10573000384FC5F860C285F82CE21B780068D6F8AF
:1057400000E03F682668C5F868020C6832481168B6
:10575000324A85F86432C5F86C72314B314F127899
:1057600000781B683F88C5F87C62C5F88042C5F8A0
:10577000841285F865223121002285F874026D2695
:1057800072242846C5F878E2C5F87032A5F8887208
:1057900085F88A6285F88B4285F88C1285F88D220F
:1057A000A5F88E22FFF7ECFE0DF5277DF0BD00BFBA
:1057B00038BCFF1F28C1FF1FF4A70120903D002027
:1057C0005CBCFF1FA0C0FF1F3CC0FF1FA0820020C9
:1057D00014BCFF1FB45E01209C04002051BCFF1FBD
:1057E000B4C0FF1F40C0FF1F58BCFF1F10C0FF1FE9
:1057F00064BCFF1FA4C0FF1FB0C0FF1F9982002020
:105800001CC1FF1F10C1FF1F18C0FF1FF8C0FF1FE2
:10581000843D0020ACC0FF1FA45E012029C0FF1FF3
:10582000BCC0FF1F4CC0FF1F7CC0FF1F354B10B515
:105830000122354C1A600A201EF0EAF920460BF0CE
:1058400023FC0A201EF0E4F92046552220210BF00B
:10585000EFFB38B1E28842F0040292B220462421E4
:105860000BF0E6FB2848294C0BF0B2FC284B294AE8
:105870001B68254803EBC30302EBC30393F83420F2
:1058800011460BF085FD18211F480BF081FC1E48C6
:105890000BF08AFD03211C480BF0A2FC1E4A1F4995
:1058A0001F4B204891ED001AD0ED001AD2ED000AEE
:1058B00093ED000A94ED002A13480BF031FD1248D5
:1058C0000BF098FC10480BF077FC174BDFED175AE4
:1058D00093ED007ADFED166ADFED167A0A48B8EE2E
:1058E000C77A87EE256AE6EE267AFCEEE77A17EEAF
:1058F000901A0BF097FD1049104B032001220870FD
:105900001A6010BD88E100E0BC0C002014BCFF1F31
:1059100028C1FF1F903D0020B45E01209C040020A0
:10592000A08200205CBCFF1FB4C0FF1F0000C84263
:1059300000000143EE7CFF3E28C0FF1F08E100E0AD
:10594000002838B532DB1F2832DD3E250021182023
:105950001EF020F900211C201EF01CF9052445FA38
:1059600004F101F0010119201EF014F901211C209D
:105970001EF010F900211C201EF00CF9013CEED1A4
:10598000214619201EF006F901211C201EF002F903
:1059900021461C201EF0FEF8012118201EF0FAF806
:1059A00021461820BDE838401EF0F4B80025CDE7A8
:1059B0004500CBE738B52DED088B404B40491A78B0
:1059C000DFED407A404B9FED417A1D68404B4148E6
:1059D000D3ED008ADFED406A404C02EBC20201EBDE
:1059E000820292ED018AB8EE488A012388EE276A86
:1059F000AB4028EE078A07EE903AC8EE889A384BFB
:105A00001B88F8EEE77A09EE103A86EE277AF5EE73
:105A1000C08AF1EE10FAC0ED009AB8EEC9BAD8BF4C
:105A2000F1EE699AF6EE00AAB0EE690AABEE6A0AE8
:105A300086EE87AA84ED008A22F0C4FF30EE000AC9
:105A4000284AFDEEC07AB0EE690A17EE903AABEE46
:105A50002A0A138022F0B6FF30EE000AF0EE686AE0
:105A6000FDEEC07A9FED177A1F4A2048204917EEB5
:105A7000903AF8EE497A1380E8EE676A1D4BE8EE3B
:105A8000278A1B6886EE876A4B33C8EE876A07EE63
:105A9000903AF8EEE77AB0EE677AAAEE067AEAEE86
:105AA000267ABDEC088BBDEEC77AFDEEE77A17EEDD
:105AB000102A17EE903A02800B8038BD58BCFF1FA9
:105AC000DC16030000007A44BCC0FF1F0000003950
:105AD000C8C0FF1FF0A7012000008043F4BC0120D4
